:100000000C945E000C9486000C9486000C94860080
:100010000C9486000C9486000C9486000C94860048
:100020000C9486000C9486000C9486000C94A20517
:100030000C9486000C9486000C9486000C94860028
:100040000C9458050C9486000C9426050C9400051D
:100050000C9486000C9486000C9486000C94860008
:100060000C9486000C948600000000080002010039
:100070000003040700000000000000000000000072
:10008000250028002B0000000000240027002A0083
:10009000040404040404040402020202020203032E
:1000A0000303030301020408102040800102040836
:1000B00010200102040810205E06DE0911241FBE74
:1000C000CFEFD8E0DEBFCDBF11E0A0E0B1E0EEE9B8
:1000D000F9E102C005900D92A439B107D9F722E0E9
:1000E000A4E9B1E001C01D92AD38B207E1F710E01C
:1000F000CDE5D0E004C02197FE010E94C10ACC35B5
:10010000D107C9F70E94E4060C94C20C0C940000BD
:1001100090E0FC01EC55FF4F249180579F4FFC016C
:100120008491882399F090E0880F991FFC01EA5789
:10013000FF4FA591B491FC01E458FF4F8591949134
:100140008FB7F894EC91E22BEC938FBF0895CF9288
:10015000DF92EF92FF92DC01A03282E0B807D4F583
:10016000A53BB10514F0A4EBB0E04091720228E881
:1001700030E0241B310947FD3395220F331F220F36
:10018000331F6901330FEE08FF084091730228E521
:1001900032E0241B310947FD3395220F331F220F14
:1001A000331F032E000C440B550B2C193D094E092F
:1001B0005F09B7FF02C0B0E0A0E00E94450A24EB4F
:1001C00030E040E050E00E941B0AC20ED31EE41E45
:1001D000F51ED601E0917102EC3080F5209172029B
:1001E00088E890E0821B910927FD9395880F991F5D
:1001F000880F991FA817B90784F02091730288E52A
:1002000092E0821B910927FD9395880F991F880F13
:10021000991FA817B9070CF4CD010297880F991FF1
:100220004FB7F8942E2F30E0F901EE0FFF1FE20FC9
:10023000F31FE45BFD4F928381834FBFFF90EF90EC
:10024000DF90CF900895AF92BF92CF92DF92EF925E
:10025000FF920F931F93CF93DF936C017B018B0170
:10026000040F151FEB015E01AE18BF08C017D107C0
:1002700059F06991D601ED91FC910190F081E02D4A
:10028000C6010995892B79F7C501DF91CF911F919F
:100290000F91FF90EF90DF90CF90BF90AF900895B7
:1002A000FC01538D448D252F30E0842F90E0821B7C
:1002B000930B541710F0CF96089501970895FC0101
:1002C000918D828D981761F0A28DAE0FBF2FB11D59
:1002D0005D968C91928D9F5F9F73928F90E00895B1
:1002E0008FEF9FEF0895FC01918D828D981731F06B
:1002F000828DE80FF11D858D90E008958FEF9FEFBF
:100300000895FC01918D228D892F90E0805C9F4F94
:10031000821B91098F73992708958FEA91E00E94BB
:10032000810121E0892B09F420E0822F089580E0EB
:1003300090E0892B29F00E948D0181110C9400001E
:100340000895FC01A48DA80FB92FB11DA35ABF4F6A
:100350002C91848D90E001968F739927848FA689C4
:10036000B7892C93A089B1898C91837080648C9318
:10037000938D848D981306C00288F389E02D8081C7
:100380008F7D80830895EF92FF920F931F93CF93F9
:10039000DF93EC0181E0888F9B8D8C8D98131AC0C0
:1003A000E889F989808185FF15C09FB7F894EE89A7
:1003B000FF896083E889F989808183708064808304
:1003C0009FBF81E090E0DF91CF911F910F91FF904F
:1003D000EF900895F62E0B8D10E00F5F1F4F0F73F7
:1003E0001127E02E8C8D8E110CC00FB607FCFACFB2
:1003F000E889F989808185FFF5CFCE010E94A101AE
:10040000F1CFEB8DEC0FFD2FF11DE35AFF4FF08282
:100410009FB7F8940B8FEA89FB8980818062CFCFE8
:10042000CF93DF93EC01888D8823B9F0AA89BB892B
:10043000E889F9898C9185FD03C0808186FD0DC016
:100440000FB607FCF7CF8C9185FFF2CF808185FF37
:10045000EDCFCE010E94A101E9CFDF91CF910895A8
:1004600090E0FC01E859FF4F2491FC01EC55FF4F4F
:100470003491FC01E057FF4FE491EE23C9F02223B1
:1004800039F0233001F1A8F4213019F1223029F19B
:10049000F0E0EE0FFF1FE458FF4FA591B4918FB726
:1004A000F894EC91611126C030953E233C938FBFA8
:1004B00008952730A9F02830C9F0243049F78091F9
:1004C00080008F7D03C0809180008F7780938000B3
:1004D000DFCF84B58F7784BDDBCF84B58F7DFBCF35
:1004E0008091B0008F778093B000D2CF8091B00020
:1004F0008F7DF9CF3E2BDACF3FB7F89480919A01E8
:1005000090919B01A0919C01B0919D0126B5A89B63
:1005100005C02F3F19F00196A11DB11D3FBFBA2F95
:10052000A92F982F8827BC01CD01620F711D811D55
:10053000911D42E0660F771F881F991F4A95D1F7DA
:1005400008958F929F92AF92BF92CF92DF92EF92D7
:10055000FF920E947C024B015C0188ECC82ED12CDA
:10056000E12CF12C0E947C02681979098A099B0907
:10057000683E734081059105A8F321E0C21AD108B5
:10058000E108F10888EE880E83E0981EA11CB11CDA
:10059000C114D104E104F10429F7FF90EF90DF903A
:1005A000CF90BF90AF909F908F9008958EBD000028
:1005B0000DB407FEFDCF8EB508950F931F93CF9313
:1005C000DF93082F162FC0E8D2E060E08D810E94F3
:1005D0003002802F880F0E94D602812F0E94D602FF
:1005E00061E08D81DF91CF911F910F910C943002CA
:1005F0000F931F93CF93C82F00E812E060E0F8013B
:1006000085810E9430028C2F880F80680E94D6025C
:1006100080E00E94D602C82F61E0F80185810E9427
:1006200030028C2FCF911F910F910895CF93DF93BC
:10063000D82FC62F0E94F802682F6C2B8D2FDF91C8
:10064000CF910C94DD02CF93DF93D82FC62F0E9459
:10065000F802C0956C2F68238D2FDF91CF910C94F9
:10066000DD02AF92BF92CF92DF92EF92FF920F9393
:100670001F93CF93DF935C01C62E8A01790167EF48
:1006800082E00E94DD0260E884E00E94230360E8CB
:100690008AE00E94160360E081E00E94DD02E5012D
:1006A000D12CCE018A199B098C159D0528F46991DE
:1006B00089E00E94DD02F5CF6CE081E00E94DD025E
:1006C00060E88DE00E941603C0EDD7E084E00E9450
:1006D000F802D82E219711F08173C1F360E88DE004
:1006E0000E942303CD2B09F446C086E00E94F80245
:1006F0008B7109F040C08AE00E94F802C82F8CE09C
:100700000E94F80287702C2F30E031F1215031091E
:1007100093E0220F331F9A95E1F7280F311DF7015F
:1007200031832083CC23F1F0C13108F0C0E178019E
:10073000D0E0C701801B910B8C179D07A8F08D2D71
:100740008170DF91CF911F910F91FF90EF90DF901B
:10075000CF90BF90AF90089583E0220F331F8A950A
:10076000E1F7DDCFC1E0E3CF89E00E94F802F701B5
:1007700081937F01DECF82E0E4CFCF92DF92EF92D0
:10078000FF920F931F93CF93DF93F82EC92EE62E7F
:100790008A0164E085E00E94230360E88AE00E9409
:1007A0001603DF2CCF2DDC2D699189E00E94DD023C
:1007B0008C2F8D198E15C0F363E081E00E94DD025D
:1007C000CFEF85E00E94F802C15011F082FFF9CF0F
:1007D00082E20E94F802F801808381E20E94F8021E
:1007E000F8018183DF91CF911F910F91FF90EF90DE
:1007F000DF90CF900895FC0101900020E9F7319738
:10080000AF01481B590BBC018FEA91E00C94230106
:10081000CF93DF930E94FB03EC0189E191E00E94FA
:10082000FB038C0F9D1FDF91CF9108950F931F93B2
:10083000CF93DF93EC0188819981009759F02A8149
:100840003B812617370730F081E0DF91CF911F9170
:100850000F9108958B016F5F7F4F0E94EC0B009703
:1008600059F0998388831B830A832C813D81232B34
:1008700059F7FC011082E8CF80E0E7CFCF92DF92FA
:10088000EF92FF920F931F93CF93DF93CDB7DEB715
:1008900028970FB6F894DEBF0FBECDBF7C01CB0109
:1008A0004AE09E012F5F3F4F6901B9010E94E609AE
:1008B000F60101900020E9F73197EC19FD09D9F014
:1008C000D70114960D911C910E0F1F1FB801C7017F
:1008D0000E941604882381F0F701208131818481F0
:1008E0009581B601820F931F0E94BB0CD70115960C
:1008F0001C930E93149781E028960FB6F894DEBFF0
:100900000FBECDBFDF91CF911F910F91FF90EF9060
:10091000DF90CF900895CF93DF93EC018881998188
:10092000009711F00E94630B198218821D821C82AD
:100930001B821A82DF91CF910895EF92FF920F935D
:100940001F93CF93DF93EC018617970781F0FB018C
:10095000008111810115110539F0E480F580B7019E
:100960000E94160481110BC0CE010E948B04CE019F
:10097000DF91CF911F910F91FF90EF900895FD822D
:10098000EC82B801888199810E94BB0CF0CFEF9274
:10099000FF920F931F93CF93DF93EC017B0119829A
:1009A00018821B821A821D821C82FB01019000208A
:1009B000E9F731978F01061B170BB8010E94160447
:1009C000811109C0CE01DF91CF911F910F91FF904E
:1009D000EF900C948B041D830C83B701888199815F
:1009E000DF91CF911F910F91FF90EF900C94BB0C72
:1009F000FC0180819181009711F00C94630B0895A4
:100A00001F920F920FB60F9211242F933F934F9383
:100A10005F936F937F938F939F93AF93BF93EF9366
:100A2000FF938FEA91E00E94A101FF91EF91BF91A6
:100A3000AF919F918F917F916F915F914F913F9176
:100A40002F910F900FBE0F901F9018951F920F922D
:100A50000FB60F9211242F938F939F93EF93FF93D1
:100A6000E091BF01F091C0018081E091C501F0915A
:100A7000C60182FD1BC090818091C8018F5F8F737A
:100A80002091C901821741F0E091C801F0E0E155E1
:100A9000FE4F958F8093C801FF91EF919F918F91A9
:100AA0002F910F900FBE0F901F9018958081F4CF5B
:100AB0001F920F920FB60F9211242F933F938F9393
:100AC0009F93AF93BF938091960190919701A091CE
:100AD0009801B09199013091950123E0230F2D37B2
:100AE00058F50196A11DB11D2093950180939601A3
:100AF00090939701A0939801B093990180919A01E6
:100B000090919B01A0919C01B0919D010196A11D26
:100B1000B11D80939A0190939B01A0939C01B09387
:100B20009D01BF91AF919F918F913F912F910F9018
:100B30000FBE0F901F90189526E8230F0296A11D57
:100B4000B11DD2CF1F920F920FB60F9211242F9387
:100B50003F934F935F936F937F938F939F93AF9345
:100B6000BF93CF93DF93EF93FF9380919401C09154
:100B70007002D0E087FF24C010928500109284009C
:100B8000809194018F5F8093940180919401082E4D
:100B9000000C990B8C179D0724F4809194018C30E4
:100BA000C4F18091840090918500049680349C4922
:100BB00008F47AC08091840090918500049676C0F4
:100BC00080919401082E000C990B8C179D07C4F698
:100BD000E09194018E2FEE0F990BFC01EE0FFF1F99
:100BE000E80FF91FE45BFD4F808186FFC9CFE091DC
:100BF00094018E2FEE0F990BFC01EE0FFF1FE80FF3
:100C0000F91FE45BFD4F808160E08F730E9430022A
:100C1000B7CF2091840030918500E09194018E2F10
:100C2000EE0F990BFC01EE0FFF1FE80FF91FE45BBD
:100C3000FD4F81819281820F931F90938900809351
:100C40008800E09194018E2FEE0F990BFC01EE0FBE
:100C5000FF1FE80FF91FE45BFD4F808186FF11C085
:100C6000E09194018E2FEE0F990BFC01EE0FFF1F08
:100C7000E80FF91FE45BFD4F808161E08F730E94F4
:100C80003002FF91EF91DF91CF91BF91AF919F9192
:100C90008F917F916F915F914F913F912F910F9025
:100CA0000FBE0F901F90189580E49CE990938900E7
:100CB000809388008FEF80939401E3CF1092B2016C
:100CC0001092B10188EE93E0A0E0B0E08093B30110
:100CD0009093B401A093B501B093B6018BE091E07D
:100CE0009093B0018093AF0185EC90E09093BC01AC
:100CF0008093BB0184EC90E09093BE018093BD0192
:100D000080EC90E09093C0018093BF0181EC90E073
:100D10009093C2018093C10182EC90E09093C40152
:100D20008093C30186EC90E09093C6018093C50147
:100D30001092C8011092C9011092CA011092CB0101
:100D40008AE090E0909386028093850289E090E0AB
:100D500090938802809387028AE00E94880060E076
:100D6000809185020E943002809187020E94880053
:100D700061E0809187020E9430026CE171E084E7BB
:100D800092E00E94C70466E271E08AE792E00E9466
:100D9000C704809170028C3098F491E0980F909382
:100DA00070028093710290E0FC01EE0FFF1FE80FCC
:100DB000F91FE45BFD4F88EB9BE0928381830895EC
:100DC0008FEF809371020895CF93DF93CDB7DEB795
:100DD00061970FB6F894DEBF0FBECDBF789484B58F
:100DE000826084BD84B5816084BD85B5826085BD27
:100DF00085B5816085BD80916E00816080936E00B5
:100E000010928100809181008260809381008091A6
:100E10008100816080938100809180008160809357
:100E200080008091B10084608093B1008091B00017
:100E300081608093B00080917A00846080937A0012
:100E400080917A00826080937A0080917A0081603C
:100E500080937A0080917A00806880937A00109263
:100E6000C100E091BF01F091C00182E08083E09178
:100E7000BB01F091BC011082E091BD01F091BE0177
:100E80008FEC80831092C701E091C301F091C401FF
:100E900086E08083E091C101F091C2018081806190
:100EA0008083E091C101F091C201808188608083DC
:100EB000E091C101F091C201808180688083E0915E
:100EC000C101F091C20180818F7D80831FB7F894AA
:100ED00080919E01811124C0EAE9F0E08491EEEA5C
:100EE000F0E09491E82FF0E0EE0FFF1FEA57FF4F7C
:100EF000A591B491EC91E92321F461E08AE00E948C
:100F000030028AE00E9488008CB580618CBD8CB56F
:100F100080648CBD8DE00E9488008BE00E94880078
:100F200080919E018F5F80939E011FBF61E0809141
:100F300087020E9430026FE081E00E94DD026DE8CE
:100F40008AE20E94DD026EE38BE20E94DD026EE126
:100F50008DE20E94DD0260E08CE20E94DD0260E42E
:100F600085E10E94DD026DE381E10E94DD0284E102
:100F70000E94F802837021F463E084E10E9416036A
:100F800085E00E94880086E00E94880061E085E09C
:100F90000E9430020E94A10261E086E00E943002BD
:100FA0000E94A10260E085E00E9430020E94A1023E
:100FB00060E086E00E943002809171028C3008F07F
:100FC00050C083E00E94880080917102282F30E099
:100FD000F901EE0FFF1FE20FF31FE45BFD4F90815D
:100FE000907C9360908310927202109273022CE0B6
:100FF000622F0E94B50A829FB001112430E020E0E8
:10100000AB01420F531FFA01EE0FFF1FE40FF51F54
:10101000E45BFD4F908196FD16C02F5F3F4F2C3053
:10102000310571F781110FC01092800082E080932A
:1010300081001092850010928400B19A80916F0017
:10104000826080936F00E09171028E2F90E0FC012E
:10105000EE0FFF1FE80FF91FE45BFD4F80818064F6
:1010600080838FE090E00E94A70082E391E00E94DD
:10107000080446E2C42E50E8852E52E0952E60E02A
:10108000A62E60E0B62E73E9D72E90E2692E20E7F7
:10109000522E30E5732E67E08DE00E94DD02C09293
:1010A0009F019E012F5F3F4F4FE951E061E0CA0170
:1010B0000E943103811162C189819A81409709F0B0
:1010C0005DC180E591E00E9408046BE171E0CE0112
:1010D0000A960E94C70468E088E00E94230360E843
:1010E0008EE00E94230360E08DE00E94DD02D0923A
:1010F0009F016092A0019E012F5F3F4F4FE951E099
:1011000062E0CA010E943103182F81110FC0809143
:101110009F019091A00189279091A1018927909129
:10112000A20189279091A301981312E060E88EE054
:101130000E9416031111FBC08BE591E00E94FB0396
:101140008FE9E82E81E0F82EF70111917F011A82D4
:1011500019821C821B821E821D82BE01665F7F4F28
:10116000CE0101960E949D0412951F70612F70E0C0
:10117000CE0101960E943E04811104C0CE01019669
:101180000E948B04BE016F5F7F4FCE010A960E94C2
:101190009D04CE0101960E94F804F7013197008169
:1011A0000F7010E01A8219821C821B821E821D821F
:1011B000BE01665F7F4FCE0101960E949D04B8017B
:1011C000CE0101960E943E04811104C0CE01019619
:1011D0000E948B04BE016F5F7F4FCE010A960E9472
:1011E0009D04CE0101960E94F804F3EAEF16F1E0A7
:1011F000FF0609F0A9CF4E855F856A857B858FEA5A
:1012000091E00E94230189E191E00E94FB031A8290
:1012100019821C821B821E821D82BE01665F7F4F67
:10122000CE0101960E949D0404E712E0F12CF80122
:10123000248135818D819E812817390709F04FC09F
:101240008081918169817A810097A1F06115710592
:1012500031F4232BE1F0FC01808190E016C00E9464
:10126000B20C13C08FE090E00E94A70081E0809351
:1012700000011BC06115710551F0232B41F0FB01EA
:10128000808190E0919581959109892B41F586E7C0
:1012900091E00E94080480910001882319F38BE4F7
:1012A00090E00E94A7001092000161E086E00E9499
:1012B00030020E94A10260E086E00E9430020E949B
:1012C000A10261E086E00E9430020E94A10260E07B
:1012D00086E00E9430020E94A102FF24F3940A5F7C
:1012E0001F4F8016910609F0A2CFF1101CC085E8AF
:1012F00091E00E94080461E085E00E9430020E94B3
:10130000A10260E085E00E9430020E94A10261E03B
:1013100085E00E9430020E94A10260E085E00E9408
:1013200030020E94A102CE0101960E94F804D982E7
:101330005A8280919F018B838091A0018C83809140
:10134000A1018D838091A2018E838091A3018F835F
:10135000AE01485F5F4F67E0CE0101960E94BD037A
:101360009E01205F3F4FAE014F5F5F4F69E0CA01B2
:101370000E943103CE010A960E94F80479821A82F3
:10138000AE014D5F5F4F62E0CE0101960E94BD034A
:101390009E01265F3F4FAE014F5F5F4F64E0CA0181
:1013A0000E943103A114B10409F475CE0E948D018D
:1013B000882309F46ACE0E94000067CE8AE792E093
:1013C0000E94F80484E792E00C94F804BB274A30AA
:1013D00031F4992322F4BDE2909581959F4F0C94AE
:1013E000F209BB27FB015527AA27880F991FAA1FBF
:1013F000A41710F0A41B83955051B9F7A05DAA3330
:1014000008F0A95DA193009779F7B111B1931192FA
:10141000CB010C940B0ADC01FC01672F719177233F
:10142000E1F7329704C07C916D9370836291AE179F
:10143000BF07C8F30895052E97FB1EF400940E9481
:10144000320A57FD07D00E94840A07FC03D04EF4ED
:101450000C94320A50954095309521953F4F4F4F4F
:101460005F4F089590958095709561957F4F8F4F50
:101470009F4F08950E94A60AA59F900DB49F900DBE
:10148000A49F800D911D11240895B7FF0C943A0A72
:101490000E943A0A821B930B08952F923F924F921B
:1014A0005F926F927F928F929F92AF92BF92CF92F4
:1014B000DF92EF92FF920F931F93CF93DF93CDB7FD
:1014C000DEB7CA1BDB0B0FB6F894DEBF0FBECDBF75
:1014D00009942A88398848885F846E847D848C8446
:1014E0009B84AA84B984C884DF80EE80FD800C814F
:1014F0001B81AA81B981CE0FD11D0FB6F894DEBF32
:101500000FBECDBFED010895A1E21A2EAA1BBB1B91
:10151000FD010DC0AA1FBB1FEE1FFF1FA217B307BF
:10152000E407F50720F0A21BB30BE40BF50B661FD5
:10153000771F881F991F1A9469F760957095809599
:1015400090959B01AC01BD01CF010895A29FB00110
:10155000B39FC001A39F700D811D1124911DB29FE7
:10156000700D811D1124911D0895991B79E004C00F
:10157000991F961708F0961B881F7A95C9F78095D2
:101580000895EE0FFF1F0590F491E02D09940F933D
:101590001F93CF93DF938230910510F482E090E0A7
:1015A000E0918B02F0918C0230E020E0B0E0A0E00E
:1015B000309799F42115310509F44AC0281B390BDD
:1015C00024303105D8F58A819B816115710589F137
:1015D000FB0193838283FE0111C04081518102810E
:1015E000138148175907E0F04817590799F41097E5
:1015F00061F012960C93129713961C933296CF01BA
:10160000DF91CF911F910F91089500938B0210935A
:101610008C02F4CF2115310551F04217530738F0F1
:10162000A901DB019A01BD01DF01F801C1CFEF0182
:10163000F9CF90938C0280938B02CDCFFE01E20F05
:10164000F31F819391932250310939832883D7CF97
:101650002091890230918A02232B41F420910301C9
:101660003091040130938A02209389022091010174
:10167000309102012115310541F42DB73EB740915B
:10168000050150910601241B350BE0918902F09170
:101690008A02E217F307A0F42E1B3F0B2817390725
:1016A00078F0AC014E5F5F4F2417350748F04E0FBE
:1016B0005F1F50938A0240938902819391939FCF39
:1016C000F0E0E0E09CCFCF93DF930097E9F0FC01DE
:1016D000329713821282A0918B02B0918C02ED019D
:1016E00030E020E01097A1F420813181820F931F18
:1016F0002091890230918A022817390709F061C0C8
:10170000F0938A02E0938902DF91CF910895EA0174
:10171000CE17DF07E8F54A815B819E01411551052F
:10172000B1F7E901FB83EA8349915991C40FD51FB1
:10173000EC17FD0761F4808191810296840F951F5B
:10174000E90199838883828193819B838A83F0E076
:10175000E0E012968D919C9113970097B9F52D9129
:101760003C911197CD010296820F931F209189021F
:1017700030918A022817390739F6309751F51092BF
:101780008C0210928B02B0938A02A0938902BCCF84
:10179000D383C28340815181840F951FC817D90715
:1017A00061F44E5F5F4F88819981480F591F5183C3
:1017B00040838A819B81938382832115310509F0BF
:1017C000B0CFF0938C02E0938B029ECFFD01DC0141
:1017D000C0CF13821282D7CFB0E0A0E0E2EFFBE0EF
:1017E0000C944F0A8C01009751F4CB010E94C70A58
:1017F0008C01C801CDB7DEB7E0E10C946B0AFC01A7
:10180000E60FF71F9C0122503109E217F30708F495
:101810009DC0D901CD91DC911197C617D70798F0DB
:10182000C530D10530F3CE0104978617970708F32A
:10183000C61BD70B2297C193D1936D937C93CF0195
:101840000E94630BD6CF5B01AC1ABD0A4C018C0E13
:101850009D1EA0918B02B0918C02512C412CF12C39
:10186000E12C109731F58091890290918A028815B8
:10187000990509F05CC04616570608F058C08091DB
:10188000010190910201009741F48DB79EB74091FC
:10189000050150910601841B950BE817F90708F024
:1018A00055C0F0938A02E0938902F9017183608345
:1018B000A0CF8D919C91119712966C9012971396D0
:1018C0007C901397A815B90559F56C0142E0C40E38
:1018D000D11CCA14DB0420F1AC014A195B09DA01FE
:1018E0001296159780F06282738251834083D901EA
:1018F0006D937C93E114F10471F0D7011396FC937E
:10190000EE93129776CF22968C0F9D1FF90191834B
:101910008083F301EFCFF0938C02E0938B0269CFC9
:101920004816590608F42C017D01D3019ACFCB014A
:101930000E94C70A7C01009749F0AE01B8010E94DD
:10194000A90CC8010E94630B870153CF10E000E08F
:1019500050CFFB01DC0102C001900D92415050407C
:10196000D8F70895FB01DC018D91019080190110D9
:10197000D9F3990B0895FB01DC0101900D92002031
:10198000E1F7089510E0CDE5D0E004C0FE010E942B
:0E199000C10A2196CE35D107C9F7F894FFCFD2
:10199E000100008D02800000000000C301230150F1
:1019AE0001100281015F0173010D0A0033313039DC
:1019BE003838303136003139363132303132373114
:1019CE003500506C61636520636172642F746167CA
:1019DE00206E656172207265616465722E2E2E0016
:1019EE004361726420666F756E640054686520638F
:1019FE006172642773204944206E756D6265722092
:101A0E006973203A200041636365737320477261E6
:101A1E006E746564004163636573732044656E691B
:041A2E0065640000EB
:00000001FF
